:020000003028A6
:10000800FF00030E8301AC000A08AD008A018B1CB7
:1000180016288B102408013CA4002508031C013E67
:10002800A501A5022D088A002C0E8300FF0E7F0E65
:020038000900BD
:0E003A00831203132B088A002A088200080094
:100048001D208A110A128000840AAA0A0319AB0A21
:08005800F003031D2428080039
:1000600083120313A001A1010130A200A3010130FA
:10007000A400A501A601A7010130A800A9018316CB
:10008000061401130B168B1788018312880183163F
:100090008701FF308312870083168501FF308312AA
:1000A0008500831689018312890183168614003026
:1000B00083122506031D5E2800302406031DDE285A
:1000C000280829040319A42886186B282208230469
:1000D000031D6B28A328861C6E286B28A201A30190
:1000E00011308800023089000330A0000030A100E8
:1000F00080302106F00080307002031D812800301E
:100100002002031C9828200885000B30FB002630B5
:10011000FC005D30FD00FD0B8B28FC0B8B28FB0BDE
:100120008B28000000000130A002031CA1037828E6
:100130008901081288162808013CA8002908031C18
:10014000013EA901A902DD28861CDD28861CA928FC
:10015000A6280A3088000130890088140330A000E6
:100160000030A10080302106F00080307002031DB5
:10017000BB2800302002031CD228200885000B3049
:10018000FB002630FC005D30FD00FD0BC528FC0B9C
:10019000C528FB0BC528000000000130A002031C8D
:1001A000A103B2288901881008152808013CA8007D
:1001B0002908031C013EA901A902E3290130A2007C
:1001C0000030A30001308900013088000230A60011
:1001D0000030A70080302706F00080307002031D39
:1001E000F32800302602031C5C2924082504031987
:1001F0005C292608870000302706031D01290230EC
:100200002606031D2F2908160330A0000030A10088
:1002100080302106F00080307002031D112900306B
:100220002002031C2C292408250403192C2920084A
:1002300085000B30FB002630FC005D30FD00FD0B1F
:100240001F29FC0B1F29FB0B1F2900000000013098
:10025000A002031CA1030829081288165729093097
:10026000A0000030A10080302106F0008030700234
:10027000031D3C2900302002031C572924082504B3
:1002800003195729200885000B30FB002630FC009D
:100290005D30FD00FD0B4A29FC0B4A29FB0B4A2966
:1002A000000000000130A002031CA103332901302B
:1002B000A602031CA703EA28023089000830880040
:1002C0000130A6000030A70080302706F000803003
:1002D0007002031D6D2900302602031CDE2924084C
:1002E00025040319DE292608870000302706031D90
:1002F0007B2901302606031DB12988140530A00092
:100300000030A10080302106F00080307002031D13
:100310008B2900302002031CB0292408250403196E
:10032000B02900302106031D972902302006031D45
:100330009B2988100815200885000B30FB0026300B
:10034000FC005D30FD00FD0BA329FC0BA329FB0B7A
:10035000A329000000000130A002031CA103822990
:10036000D9290930A0000030A10080302106F0001A
:1003700080307002031DBE2900302002031CD929E1
:10038000240825040319D929200885000B30FB0017
:100390002630FC005D30FD00FD0BCC29FC0BCC2988
:1003A000FB0BCC29000000000130A002031CA103BC
:1003B000B5290130A602031CA70364298801FF3078
:0A03C0008700FF3085005728E4296C
:02400E004A2F37
:00000001FF
